:020000040800F2
:10000000B008002055010008351C0008331C00080A
:1000100000000000000000000000000000000000E0
:10002000000000000000000000000000391C000873
:100030000000000000000000371C00083B1C000806
:100040006701000800000000670100086701000860
:10005000670100081D020008670100082D02000862
:1000600000000000F901000805020008670100080F
:100070006701000867010008670100080000000030
:100080006701000800000000000000006701000890
:100090000000000067010008670100086701000810
:1000A000000000006701000800000000711F000848
:1000B00000F002F800F03EF80CA030C80838241810
:1000C0002D18671EA246AB4654465D46AC4201D190
:1000D00000F030F87E460F3EB6460FCC0126334284
:1000E00000D0FB1A3343A246AB4618470424000055
:1000F00024240000103A02D378C878C1FAD85207F5
:1001000001D330C830C101D504680C6070470000CD
:100110000023002400250026103A01D378C1FBD823
:10012000520700D330C100D50B6070471FB51FBD0B
:1001300010B510BD00F02DF81146FFF7F7FF01F0E4
:100140001DFF00F045F803B4FFF7F2FF03BC00F019
:100150004BF800000748804707480047FEE7FEE7E6
:10016000FEE7FEE7FEE7FEE704480549054A064BC1
:1001700070470000431C0008B1000008B0020020D6
:10018000B0080020B0040020B00400207047704781
:100190007047754600F024F8AE46050069465346A0
:1001A000C008C000854618B020B5FFF7DDFF60BC71
:1001B000B64600260027C0C5C0C5C0C5C0C5C0C55D
:1001C000C0C5C0C5C0C5403D490849008D467047FF
:1001D00010B50446C046C0462046FFF7B4FF10BD28
:1001E000004870471000002001491820ABBEFEE710
:1001F000260002007047000080B5DA4800F0F8F9E8
:1002000080BDC04680B5034800F0F2F9024800F016
:10021000EFF980BD38010020F400002080B50120F6
:1002200000F090FA022000F08DFA80BD10B5402059
:1002300000F088FA0124200200F084FA600200F045
:1002400081FA10BDEFF3108072B6FEE7F0B583B00F
:10025000002702973422825C012A02D1022003B0D7
:10026000F0BD054634350668B268520717D40097CA
:1002700001950B684A68012427469F403A4DAA42DF
:1002800013D1B06AB843B0621846A0431028009F4B
:100290003846019D54D1102B19D0384818E0816B95
:1002A00020220A43826301204AE0B26A3A43B262E2
:1002B000C06A421E072A46D21846A0431028009F53
:1002C0003846019D3CD1102B0AD0A00509E02A48F0
:1002D00026490A6802400A6038462F7003B0F0BD14
:1002E000E00522490A6802430A60102B384627D1EC
:1002F0001F4800681F4901F0E3FF0A2141430291B2
:100300000298002838461BD00298401E029002989E
:10031000002811D00298401E0290029800280BD0AD
:100320000298401E02900298002805D00298401EB4
:10033000029002980028E7D138462F7003B0F0BD34
:100340002F7003B0F0BD22079042B5D0726907202C
:10035000024089689142AFD0726982437261014064
:10036000706908437061A7E7011000000827014089
:100370000800002040420F00FFFF7FFFFFFFBFFF8C
:10038000F0B581B00125002862D004460646243627
:10039000806B002803D0A06BC00609D554E0002074
:1003A0003074E063204600F097F8A06BC0064BD491
:1003B00020688168490747D481214900A26B8A439C
:1003C000911CA163826803210A40012A05D10268B9
:1003D000D2070ED1C26812040BD4C26818239A4304
:1003E000A3681343C360890702698A4361681143A4
:1003F0000161C168364A0A40C260A16A491E4A1EAC
:1004000091410903227E9203637EDB031343A27EA4
:1004100055031D43E36827692B430B43B91E4D4227
:100420004D41AD001D43317849002943E37E012B46
:1004300014D1002A0FD0A26B20231343A363E26BD5
:1004400001231343E36309E0A06B10210143A1637F
:10045000284601B0F0BD012212041143E269FF23D6
:10046000C2339A4202D00A43216A1143C2680A4346
:10047000C260E26A531E072B24D243690725AB43AF
:1004800043612A40436913434361C068114A0240F3
:100490008A420AD10025E563A06B012101430220B5
:1004A0008143A163284601B0F0BDA06B1021014338
:1004B00002208143A163E06B01252843E0632846C5
:1004C00001B0F0BD01231B079A42D6D0DDE7C0463C
:1004D0001902FEFFE7FF3F83F0B587B00446002610
:1004E0000696059600681D49884201D007B0F0BD08
:1004F00001277A0200921A4841681143416041681D
:10050000114001910199790402680A430260006870
:100510000840019004960320039007200290019860
:100520000920C00602A900F019F90E4D2020F90299
:1005300080220D4B48C52E606A60009AAA60E9606F
:1005400028616E61083D284600F0BCF8002801D003
:10055000FFF778FE6C62256307B0F0BD0024014010
:1005600014100240B00000200800024010B5212104
:10057000425C01462031022A12D1026813680E241F
:10058000A343136013680124A3431360C26B006C80
:100590002346834053604C70002000220A7010BD37
:1005A00004228263012000220A7010BDB0B521210F
:1005B000415C022918D101462031026813680E24DB
:1005C000A343136013680125AB431360C26B036C34
:1005D0002C469C40546000240C704D70416B0029E7
:1005E00000D088472046B0BD042181630120B0BD02
:1005F000F0B585B0C16B026C04273C460292944072
:1006000003910E68214631404B424B4104900568EE
:100610002868014639404A424A411A4330D0019580
:1006200001230227014639404C424C41029A97402F
:1006300037421D461946334600D02146049E3446B3
:10064000203400292CD00821084047424741104659
:10065000D340190700D53D46002D019B1ED11968D6
:100660000E229143196001210A468240039B5A6081
:10067000B163002222706170316B00290CD10DE052
:100680002968890602D42968B943296003994C6016
:10069000049EF16A002901D03046884705B0F0BDBC
:1006A000019B1968890605D419680A2291431960CB
:1006B000012161700021217003994F60B16A002906
:1006C000EAD1EBE7F0B585B000282FD00446064606
:1006D000203602207070A2CC236860680190A06868
:1006E0000290E0680390206904900868114A024073
:1006F0002A433A431A43019802430298024303985B
:100700000243049802430A600025E5620A48206318
:1007100035700A480C3C0818142101F0D1FD800006
:10072000206401207070284605B0F0BD01252846E0
:1007300005B0F0BD0FC0FFFF00000240F8FFFDBF95
:100740007047000080B504490A68024202D0086080
:10075000FFF7F6FF80BDC04614040140F0B58EB02F
:1007600007466E48874201D0052000E00320009034
:1007700008680C90002800D1CEE0012300240393E8
:100780000B940A940791099711E00C9A1043644A5C
:10079000D06008680C90D840241D5B1C0B9A921CFA
:1007A0000B920A9A521C0A92002800D1B4E05A1EF9
:1007B0000398089290400C9A02400C92E9D005935D
:1007C0004B6803261A463240551E012D06940293AB
:1007D00018D803260B9FBE40099CA168B143079D12
:1007E000ED68BD400D43A560D906C90F089DA9401D
:1007F000656885430D436560069C0799F3430A9835
:1008000045000BE030460B9DA840C343032A05D1A9
:1008100004930B983246099F029B22E0099F2E46C3
:10082000F86818408D680196B5400543FD60022ABE
:10083000049314D11C2020400F218140089AD20833
:100840009200BA18156A8D4307990E6986402E43A7
:1008500007991662099F4B6803221A4000E0029B29
:10086000019882403868049D2840104338609803FE
:10087000800F059B8DD05A4A1068012108431060F3
:10088000106808400D900C2222400F25954003204F
:10089000089E86430D98234C3059A84335190926E4
:1008A000F606099CB442099F09D01F4CA74207D005
:1008B0001E498F420099069C03D1022101E00021CC
:1008C000069C9140014329601548006807994D68CE
:1008D000EA0302D50C9A104301E00C9A9043104AA7
:1008E00010605068AA0302D50C9A104301E00C9ADC
:1008F00090430B4A50609068EA0202D50C9A10436C
:1009000001E00C9A9043064A9060D068AA0200D594
:100910003BE70C9A90433AE70EB0F0BD000C00485C
:10092000000401400800014000040048000800489D
:10093000002A02D018228150704728228150704727
:10094000054800687047C0461A48007802490A689E
:10095000101808607047C046AC02002010B5C548AA
:10096000016810220A4302600024204600F004F8C7
:1009700000F022F8204610BD70B504467D20C0006E
:100980000C4E317801F09CFC0146C248006801F031
:1009900097FC00F04FFC0125032C08D8002806D155
:1009A0000025E84321462A4600F028F874602846CE
:1009B00070BDC0460000002082B0094801680122D5
:1009C00011430160016811400191019911074268CA
:1009D0000A434260406808400090009802B07047A7
:1009E00018100240002805D41F2108400121814031
:1009F000014801607047C04600E100E0002805D4CE
:100A00000322034693430C4A9A1806E00F22024041
:100A1000083A03239A43074BD2188007C00E890176
:100A2000C9B28140FF238340106898430843106097
:100A30007047C0461CED00E000E400E0F0B585B072
:100A400004468078C0073A4B4FD00120039001073D
:100A50001A1F10680840029006D110680843106001
:100A6000106808400490049800920191314E30685B
:100A7000C00513D403980702306838433060FFF78D
:100A80005FFF05463068384208D1FFF759FF401B29
:100A90006428F7D90325284605B0F0BD03252802B0
:100AA000234B1968014012D06268024091420ED077
:100AB0000398000419681A6802431A601A6882438E
:100AC0001A6008461C4A10401860C80722D11868EE
:100AD000194908406168014319600298002804D14F
:100AE000009A10680199884310602068C10705D0FA
:100AF000196903229143A2680A431A6100258006FE
:100B0000C9D5186910218843E16801431961284655
:100B100005B0F0BDFFF714FF0646574F044B1868A9
:100B20008007D4D4FFF70CFF801BB842F6D9B2E798
:100B30002010024000700040FFFCFFFFF0B581B0C4
:100B400000284FD004464B4A1368012003408B42D3
:100B500008D213680126B3430B4313601268324076
:100B60008A4240D1009121688A075A4B11D54A0721
:100B700007D507221202574B1B681343554A1360CF
:100B8000544B1A68F0239A43A3681343514A1360E5
:100B9000504BC9072AD13749086801263040009ACE
:100BA000904205D90868B04308600868C0071AD1A8
:100BB0002078400706D50720000219688143E068C5
:100BC0000843186019680C220A404348082A18D1C3
:100BD0008A02120F414B9C5C3E4B9A6AC90332D485
:100BE000404837E00126304601B0F0BD61681A1F69
:100BF000022908D001290BD1126892030646F2D5CA
:100C00000AE0044627E0126892010646EBD503E0AD
:100C1000126892070646E6D518680326B0430843D3
:100C20001860FFF78DFE0746134D2A4B18680C21FC
:100C30000140606880008142ADD0FFF781FEC01B9B
:100C4000A842F2D9CFE70F210A402549895C01F07B
:100C500037FB204B444318680006000F0749085C27
:100C6000C4400C48046000263046FFF785FE30463D
:100C700001B0F0BD0020024088130000B624000837
:100C800004480068134909684905490F024A515C44
:100C9000C840704708000020C624000810B50D4960
:100CA0000A680C2313400C48082B09D193021B0F30
:100CB0000A4CE45C896AD20303D40A4844432046C0
:100CC00010BD0F221140064A515C01F0F9FA44436D
:100CD000204610BD0410024000127A00CE24000805
:100CE000DE24000800093D00F0B587B0044601206D
:100CF000002C00D1EAE104902078C007F44E05945E
:100D000026D071680C20014004291AD07168014076
:100D1000082902D17068C00313D461680120470418
:100D2000002900D184E1052900D198E1012900D1F1
:100D300099E1010432688A43326081043068884353
:100D400094E13068800303D56068002800D1BDE0DD
:100D5000207880071AD570680007800F07D0706868
:100D60000C210140082975D17068C00372D4306825
:100D70008007059C03D5E068012800D0A6E0306814
:100D8000F82188432169C90001433160059C20781E
:100D9000000724D42078400736D42078C00600D439
:100DA000B4E005984069411D00D1A3E0012800D0BE
:100DB000F4E0706B042101437163706B0121014306
:100DC0007163FFF7BDFD0546706B800700D595E0A8
:100DD000FFF7B6FD411B03200229F5D976E1706AC1
:100DE000E169002960D0012108437062FFF7A8FD86
:100DF0000546706A8007CDD4FFF7A2FD401B02288C
:100E0000F7D9032007B0F0BD012003900107F06976
:100E10000840029006D1F0690843F061F06908408B
:100E2000069006980191AB4F3868C00528D4039806
:100E30000402386820433860FFF782FD05463868B1
:100E400020421DD1FFF77CFD401B6428F7D9032009
:100E500007B0F0BD3068059CE168002939D0012158
:100E600008433060FFF76CFD05463068800786D484
:100E7000FFF766FD401B0228F7D9032007B0F0BD3D
:100E800005988068944F002800D19CE0052800D187
:100E9000AEE0012800D1AFE0306A039988433062A8
:100EA000306A04218843AAE0012188437062FFF779
:100EB00047FD0546706A800700D46BE7FFF740FDE9
:100EC000401B0228F6D9032007B0F0BD049807B0F4
:100ED000F0BD012188433060FFF732FD05463068E0
:100EE000800700D452E7FFF72BFD411B03200229A6
:100EF000F5D9EBE0706B042188437063706BF821C7
:100F0000884305998969C900014371630598046A9A
:100F1000002C1ED070680C21014008291CD1012C26
:100F2000049800D1D2E00120030471680B40F26AFA
:100F3000059D6C6AA34200D0C8E00F231A40EC6AFA
:100F4000A24200D0C2E09A041140AA6A914200D0A5
:100F5000BCE0002007B0F0BD012002063168049219
:100F6000914331604706FFF7EBFC0546022C0BD19D
:100F7000049C3068384200D188E0FFF7E1FC411B57
:100F800003200229F5D9A1E030683842E1D0FFF70B
:100F9000D7FC411B03200229F6D997E0706B04218E
:100FA00001437163706B012188437063FFF7C8FCD4
:100FB0000546706B8007A9D5FFF7C2FC411B0320D3
:100FC0000229F6D982E0306A039988433062306A98
:100FD000042188433062FFF7B3FC0546306A80077E
:100FE0001CD5FFF7ADFC411B0320B942F6D96DE0DB
:100FF000306A042101433162306A03990843306248
:10100000FFF79EFC0546306A800707D4FFF798FC7F
:10101000401BB842F7D9032007B0F0BD0298002862
:10102000059C00D0B9E6F06901998843F061B4E607
:10103000010432688A433260800431688143316040
:10104000FFF77EFC0546059C3068384200D17FE6FC
:10105000FFF776FC411B03206429F5D936E08104B3
:1010600032680A4332600104306808433060FFF799
:1010700067FC05463068384200D069E6FFF760FC3F
:10108000401B6428F6D9032007B0F0BDF06A0F2199
:101090008843059AD16A0143F1623D2000047168DA
:1010A0008143906A0843516A01437160306820436C
:1010B0003060FFF745FC04463068384200D048E70E
:1010C000FFF73EFC011B03200229F5D907B0F0BD54
:1010D000001002400070004088130000F0B585B099
:1010E00000280CD0044605465C3541208600606A25
:1010F000002807D0002020612046143007E001209E
:1011000005B0F0BD6068B04203D020461C3000211D
:1011100001600027A7626878002804D100202870A9
:10112000204600F059F8022004950190687020686C
:1011300001684022914303900160E168254A01253E
:1011400091422A4600D33A461203ED020D430F277F
:1011500038020290854201D00025A5626568A76823
:10116000354021239B023B405B19256901980540CE
:101170001D436069012318402843FC36A7693E409F
:101180000643E069382505403543206A802606403D
:101190002E435803A56A05403543039E3560380C3D
:1011A00004250540029801400A432A43606A102141
:1011B00001401143606B082202400A437260D8026A
:1011C000F1698143F1610020206604994B7005B0FC
:1011D000F0BDC0460107000080B586B00068134925
:1011E000884201D006B080BD012001036B4A5368DC
:1011F0000B43536053680B400193019980041168BD
:101200000143116011680140009100200590032105
:101210000491039002200290282001900098044835
:1012200001A9FFF79BFA06B080BDC046003001401F
:1012300000040048401E010E01D0012070470749FC
:10124000074A5060074803680B4003218907591873
:10125000016000209060072111607047FFFFFF00D0
:1012600010E000E020ED00E0B0B5002824D00446F6
:1012700005463C356878002804D1002028702046B7
:1012800000F052F80220687020680368DE49884246
:1012900002D0234A904211D170229343A2681A438C
:1012A000204B98420EDD884212D0D84B98420FD086
:1012B000D74B98420CD031E00120B0BD1A46194BF3
:1012C0009842F0DC164B984202D0334B984225D11D
:1012D00003231B029A432369134380229343A26989
:1012E0001A430260E268C26262688262884205D084
:1012F000C649884202D0FA49884201D16169016336
:1013000001214161A972A970E97029716971A971FE
:10131000E9712972697269700020B0BD1346DCE77B
:1013200000040040FF2B014081B00068ED49884275
:1013300001D001B070470120000205490A6802434C
:101340000A60096801400091009801B07047C046EA
:101350001C10024080B586B00068E249884201D086
:1013600006B080BD012040040C490A6802430A60AF
:10137000096801400091042005900020049003902A
:1013800002200290102001900920C006009901A9B6
:10139000FFF7E4F906B080BD0020004014100240C1
:1013A000F0B582B03C23C35C012B02D1022002B015
:1013B000F0BD03463C330224E241032A71D8C04603
:1013C0007A44127952009744012339500268106A16
:1013D0000125A8431062106AA0438E680643506836
:1013E0000F689569BA4CA242019706D0BB4CA24245
:1013F00003D0BB4CA24200D0D6E00C24A643CC685C
:101400000427BC433443B24EB24200D0D0E0D5E012
:101410000268106A1024A0431062146A20208443DA
:1014200088680001204356680C6801949469A84DAF
:10143000AA423BD00746AA4242D147E001242502F6
:101440000268106AA84310626002146A84438868C4
:101450000002204356680C680194D5699C4CA24256
:1014600054D00746A2425DD162E001242503026800
:10147000106AA8431062156A50688E6801960E685B
:101480000096D769924EB24205D0944EB24202D035
:10149000934EB2426AD1A603B0434E69B6010643E9
:1014A00065E001200021197002B0F0BDC027B843EB
:1014B000CF683F014025AF43854D0743AA4205D081
:1014C0008648824202D08648824208D103208002A8
:1014D000864348698D6980003043AE00064310465C
:1014E0001830566073252D02AC43019D2D02254313
:1014F00095614C68946317620124E50296692E4356
:101500009661A4029569A54395614AE00327BF024D
:10151000B843404CFF3CCF683F0227406C4C074328
:10152000A24205D06D48824202D06D48824208D165
:1015300003200003864348698C690001304326017B
:10154000064310461C3056607324A543019C254376
:10155000D5614C68D4631762D46908252543D561E9
:10156000D4690425AC43D461096944E006461046B9
:101570001C30566073263602B743009E36023E4347
:10158000D6614E6816646603B543019E36032E434A
:101590001662E502D6692E43D661A402D569A54339
:1015A000D5610969090226E03446494EB24205D0A8
:1015B0004A4EB24202D04A4EB24207D10326360208
:1015C000B0434E698F6906433E4300E00646019FE3
:1015D0001046183056607326B5433D4395614D68FB
:1015E000556314629469082525439561946904251F
:1015F000AC439461096902680A430260002000213B
:10160000197002B0F0BDC046002C014000480140F6
:1016100000440140FFFBFFFFB0B5002824D0044682
:1016200005463C356878002804D100202870204603
:1016300000F05AF802206870206803682449884244
:1016400002D0244A904211D170229343A2681A43D7
:10165000214B98420EDD884212D0204B98420FD089
:101660001F4B98420CD031E00120B0BD1A461A4BF6
:101670009842F0DC174B984202D01A4B984225D181
:1016800003231B029A432369134380229343A269D5
:101690001A430260E268C26262688262884205D0D0
:1016A0000E49884202D00E49884201D16169016326
:1016B00001214161A972A970E97029716971A9714B
:1016C000E9712972697269700020B0BD1346DCE7C8
:1016D000002C014000040040FF2B01400048014065
:1016E00000440140002000407047704770470000F0
:1016F000F0B589B00368D9691F6820220797049262
:1017000017407C427C410125EA0216462F3608919B
:101710000E40203E711E8E4126439E6855D0029792
:101720000393059506900746583711460F310898E0
:101730000842079D06D0D449294001231E40711854
:1017400000D084E002971023294619404E424E41B2
:10175000089919404F424F410698016E012905989A
:101760000446039937D13C46002C044636D0002C61
:10177000069F37D0802129400346484248410899B6
:10178000090600D50346002B00D1DAE040200540D1
:101790006B426B410899490600D5059305990029CC
:1017A00011D1EFF31081012282F310883A68136897
:1017B0008343136081F310880020B8660498B867EB
:1017C000384600F035FA09B0F0BD416E0029FAD074
:1017D000884709B0F0BD002C0446C8D13446002C1F
:1017E000069FC7D10B628868400600D5B1E0029A17
:1017F000508811885288002AE5D0081A0104E2D0E6
:10180000EFF31082012181F31088092464013D68FF
:101810002E68A6432E6082F31088EFF3108281F3C6
:1018200010883C68A5688D43A56082F31088049AEF
:10183000FA6700227A663A66EFF3108281F3108825
:1018400039680C689C430C6082F31088C8E00192F0
:10185000190229404C424C41089DE9070598014670
:10186000039A00D02146002903D11362B96A1943B3
:10187000B96274427441A907014600D52146002986
:1018800005D102211162B96A04240C43BC6274427E
:101890007441690701460BD5214600290AD104216C
:1018A0001162B96A02240C43BC6229070CD503E01B
:1018B0000029F4D0290707D502990E4304D0082146
:1018C0001162BC6A0C43BC629906079A0A405442F2
:1018D00054412A4601990D42054600D02546002D67
:1018E00006D1039801990162B96A04980143B9626B
:1018F000B96A0029069D029900D164E73846049E22
:1019000032404C424C41002A00D0059405990029F0
:10191000044603981F4605D1696E002902D0284667
:1019200088472868A16A28230B408168402001402D
:10193000C9185BD12846FFF7D9FE0020A06209B084
:10194000F0BDB96E002900D13DE73846884709B09F
:10195000F0BD396F0868426894B2002C00D132E7BC
:1019600002980088844200D32DE7029E7280896924
:10197000202933D0EFF31081012080F31088444AEE
:1019800020323C6825681540256081F31088EFF30C
:10199000108180F310883A6894688443946081F3DE
:1019A0001088EFF3108180F310883A68946840251E
:1019B000AC43946081F310880499F967002139667B
:1019C000EFF3108180F31088386802689A43026050
:1019D00081F31088386FFEF7C9FD30887188401A8E
:1019E00081B23846FFF781FE09B0F0BDEFF31081F8
:1019F00087F31088092252012B681C6894431C60ED
:101A000081F31088EFF3108187F310882A689368B8
:101A10000897BB43936081F31088296E01290BD18D
:101A2000EFF31081089A82F310882A681368102453
:101A3000A343136081F31088EE670021296669666D
:101A400029688968490619D5EFF31081089A82F34D
:101A500010882A6893688343936081F31088286F05
:101A600000280BD009494163FEF7A0FD002800D1F2
:101A7000A9E6286F416B884709B0F0BD2846FFF7FB
:101A800035FE09B0F0BDC04620010004171D000856
:101A9000DFFEFFFFF0B583B0002840D004460746C4
:101AA0007437806F002804D100203870204600F081
:101AB00057F82420A067206801680125A943016028
:101AC000204600F033F9012826D0606A002802D0B1
:101AD000204600F0B7F80126F00221684A688243E8
:101AE0004A6088680822904388600868304308602C
:101AF0000025FD60FEF724FF034620680168090702
:101B000013D516480090710500222046029300F07C
:101B100093F9002807D00325284603B0F0BD01251E
:101B2000284603B0F0BD2068029B006840070CD532
:101B30000A480090B1050022204600F07DF90028F7
:101B400003D00325284603B0F0BD2020A067E0673E
:101B50003D702566284603B0F0BDC046FFFFFF017B
:101B6000F0B587B0044600682B49884201D007B021
:101B7000F0BD01208103294A53680B435360536829
:101B80000B400293029980041168014311601168AF
:101B9000014001910026069603200590049602203C
:101BA0000390C020029001981D4802A9FEF7D6FDBF
:101BB0001C4D80271C48143041C52E606F60AE60FC
:101BC000EE602E616E61083D2846FEF77BFD002821
:101BD00001D0FEF737FB6C622567144D10201249C7
:101BE0002960291DC1C12E616E61AE61EE6128467A
:101BF000FEF768FD002801D0FEF724FB6C62E56665
:101C00001B24002120460A46FEF7F8FE2046FEF778
:101C1000E9FE07B0F0BDC046003801401410024094
:101C200000040048F40000201C000240380100209D
:101C30007047FEE7FEE77047704780B5FEF784FE09
:101C400080BD7047B0B5416ACA070CD18A0714D469
:101C50004A071CD40A0724D4CA062CD48A0634D4D2
:101C60004A063CD44CE00122520403685C68944369
:101C7000826A22435A608A07EAD501221204036865
:101C80005C689443C26A22435A604A07E2D5012243
:101C9000920403685C689443026B22435A600A070B
:101CA000DAD50122D20303685C689443426B224375
:101CB0005A60CA06D2D50122120303689C68944375
:101CC000826B22439A608A06CAD5012252030368B6
:101CD0009C689443C26B22439A604A0610D5012245
:101CE0001305026854689C43056C2C4354609D4264
:101CF00006D103235B0554689C43436C2343536024
:101D0000090607D50121C904026853688B43806C1A
:101D100018435060B0BD80B5406A01465231002280
:101D20000A8152214252FFF7E1FC80BDB0B5044662
:101D300000680168384A0A40A16823690B43656955
:101D40001D43E1690D4315430560032212034368F7
:101D50009343E2681A434260A269236A13430B2249
:101D60001202856895431D4385602C4800688007F2
:101D7000000F2BA213580125EA032D4891420FD1E1
:101D8000082B43D87B441B795B009F44043F203FD2
:101D9000193F3F3F1F00FEF773FF002817D113E0E4
:101DA000082B33D87B441B795B009F44042F242FDE
:101DB0001D2F2F2F2300FEF763FF00281BD117E0F4
:101DC000FEF76CFF002802D100251FE010464000FE
:101DD00061684A08101800F073FA1649014015D0DE
:101DE0000007400F08430EE0FEF758FF002802D11D
:101DF00000250BE0104661684A08101800F060FAF0
:101E000080B2102802D32168C860002500206066D7
:101E1000A0662846B0BDC046F369FFFF30100240FF
:101E200000000000040000000800000002000000A4
:101E300000127A00F0FF0000F0B587B016460F469A
:101E400005460468E1693940C91B4A424A410020FD
:101E5000B24224D1069304952A4674320C9D002D7B
:101E60001FD0691C43D1E1693940C91B4A424A412C
:101E7000B24214D1E1693940C91B4A424A41B242D7
:101E80000DD1E1693940C91B4A424A41B24206D1EB
:101E9000E1693940C91B4A424A41B242E3D007B026
:101EA000F0BD0392FEF74CFD049CEFF3108101207E
:101EB00080F310880D22520123681D6895431D6030
:101EC00081F31088EFF3108180F310882268936803
:101ED0008343936081F310882020A0677C340399AA
:101EE0000020087020202060032007B0F0BD03927E
:101EF000029001200190C0020590049C06E0C06998
:101F00003840C01B41424141B1422DD1FEF718FD7E
:101F10000699401AA842C8D8206801684907EED53A
:101F2000C169059A1142EAD005990162EFF3108068
:101F3000019D85F310880D214901226813688B43A8
:101F4000136080F31088EFF3108085F31088216808
:101F50008A68AA438A6080F310882020A067E0671F
:101F600003990C460C34BBE7029807B0F0BD0000A3
:101F700080B5CF48FFF7BCFB80BDC0469AB0FEF7E6
:101F8000EDFC00241494139415941294119410945D
:101F90001994012001051891010417910227169741
:101FA0000F9011210E911025149513900994089407
:101FB00007940EA8FEF798FE002803D0EFF31080D8
:101FC00072B6FEE705950D940C940B9707250A95BC
:101FD0000AA801263146FEF7B1FD002803D0EFF331
:101FE000108072B6FEE703950894069606A8FEF7E1
:101FF00025FD002803D0EFF3108072B6FEE712949F
:10200000B005A34A116801431160116801400A91AB
:102010000A987004116801431160116801400A9127
:102020000A98B004116801431160116801400A91D7
:102030000A980920C506974928463246FEF778FCDB
:102040006520410128462246FEF772FC9248059918
:102050003246FEF76DFC119410940F968F480E9047
:102060000EA92846029504960E46FEF777FB1194BA
:10207000109704980F9020200E9028463146FEF7C6
:102080006DFB10942120000401900F900D20800121
:1020900000900E9028463146FEF760FB10940198A0
:1020A0000F90032501950E957B483146FEF756FBB0
:1020B0001195109404980F90039880020E90029846
:1020C0003146FEF74BFB01981190109404980F9045
:1020D00005980E9070483146049EFEF73FFB05259B
:1020E000284631462246FEF789FC2846FEF77AFC50
:1020F000039D284631462246FEF780FC2846FEF71F
:1021000071FC2421664846548662046241218D0098
:102110002946BD31320402920823624A14C0046089
:1021200044608660C360029A026141610838FEF72C
:1021300027F9002803D0EFF3108072B6FEE702956E
:10214000534D0E943007109030030F9054480EA951
:10215000FEF77CF8002803D0EFF3108072B6FEE79C
:102160000E964F480EA9FEF771F8002803D0EFF342
:10217000108072B6FEE70E9749480EA9FEF766F882
:10218000002803D0EFF3108072B6FEE746480462E1
:1021900044628462039AC262046344634349120244
:1021A000016002994160FC318460C2600761466150
:1021B00081610599C161FEF791FF002803D0EFF31B
:1021C000108072B6FEE728683043286028683040E7
:1021D0000E900E980925284621462246FEF70EFC51
:1021E0002846FEF7FFFB0A25284621462246FEF731
:1021F00005FC2846FEF7F6FB2D480C21E122520291
:102200002C4B036042608460C4600461416184615E
:10221000C46104624462FFF73DFC002803D0EFF381
:10222000108072B6FEE7244884612449009A7F3208
:1022300012C0046042608460149413941294119448
:102240000838FFF711F8002803D0EFF3108072B6BA
:10225000FEE71948FFF7E0F9002803D0EFF31080FC
:1022600072B6FEE71294109418200F9060200E9022
:1022700011480EA92246FFF793F8002803D0EFF388
:10228000108072B6FEE70C48FFF764F8FEE7C04620
:1022900014100240089000000004004888800000EC
:1022A00070000020002401407C010020003001402B
:1022B0002802002000380140E001002000200040FA
:1022C00043088B421AD3002203098B4279D3030AB5
:1022D0008B425ED3030B8B4242D3030C8B4227D33A
:1022E0000902FF2212BA030C8B4202D31212090216
:1022F00003D0030B8B4233D31AE0D3E0411A804161
:10230000401C704703460B4371D443088B42F5D3FE
:10231000002203098B4254D3030A8B4239D3030BA7
:102320008B421DD3030C8B4202D394466EE0090A04
:10233000C30B8B4201D3CB03C01A5241830B8B4298
:1023400001D38B03C01A5241430B8B4201D34B0381
:10235000C01A5241030B8B4201D30B03C01A5241E6
:10236000C30A8B4201D3CB02C01A5241830A8B426B
:1023700001D38B02C01A5241430A8B4201D34B0254
:10238000C01A5241030A8B4201D30B02C01A5241B8
:10239000CDD2C3098B4201D3CB01C01A524183096C
:1023A0008B4201D38B01C01A524143098B4201D3A6
:1023B0004B01C01A524103098B4201D30B01C01AD1
:1023C0005241C3088B4201D3CB00C01A524183084B
:1023D0008B4201D38B00C01A524143088B4201D378
:1023E0004B00C01A5241411A524110007047CA0FA7
:1023F00000D04942031000D34042534000229C4683
:1024000003098B422DD3030A8B4212D38901FC228C
:1024100012BA030A8B420CD3890192118B4208D362
:10242000890192118B4204D3890137D0921100E0C7
:102430008909C3098B4201D3CB01C01A52418309D8
:102440008B4201D38B01C01A524143098B4201D305
:102450004B01C01A524103098B4201D30B01C01A30
:102460005241C3088B4201D3CB00C01A52418308AA
:102470008B4201D38B00C01A5241D9D243088B4200
:1024800001D34B00C01A5241411A00D201465241B9
:10249000104663465B1000D34042704763465B10B2
:1024A00000D3404201B50021004201D0C943084693
:1024B000C046C04602BD000000000000000001024E
:1024C00003040607080900000000010203040203D8
:1024D0000405060708090A0B0C0D0E0F1010010267
:1024E000030405060708090A0B0C0D0E0F10000067
:1024F000102500080000002010000000F400000873
:102500002025000810000020A0080000100100088D
:10251000010000000400000000127A00000000002A
:04000005080000B13E
:00000001FF
