:020000040800F2
:1000000030090020550100081D2E00081B2E000895
:1000100000000000000000000000000000000000E0
:10002000000000000000000000000000212E000879
:1000300000000000000000001F2E0008E92E00084C
:100040006701000800000000670100086701000860
:1000500067010008A10B000867010008B10B000848
:1000600000000000790B0008890B000867010008F8
:100070006701000867010008670100080000000030
:100080006701000800000000000000006701000890
:100090000000000067010008670100086701000810
:1000A0000000000067010008000000007533000830
:1000B00000F002F800F03EF80CA030C80838241810
:1000C0002D18671EA246AB4654465D46AC4201D190
:1000D00000F030F87E460F3EB6460FCC0126334284
:1000E00000D0FB1A3343A246AB461847383C000009
:1000F000583C0000103A02D378C878C1FAD85207A9
:1001000001D330C830C101D504680C6070470000CD
:100110000023002400250026103A01D378C1FBD823
:10012000520700D330C100D50B6070471FB51FBD0B
:1001300010B510BD00F0FCFB1146FFF7F7FF03F010
:1001400021F900F014FC03B4FFF7F2FF03BC00F048
:1001500069FC00000748804707480047FEE7FEE7C4
:10016000FEE7FEE7FEE7FEE704480549054A064BC1
:1001700070470000F12E0008B10000083003002095
:1001800030090020300500203005002010B5202A5D
:1001900004DB0846203AD040002110BD0B46202445
:1001A000D340D040A21A91400843194610BD704771
:1001B000704770470246C80FC00781434B0030B5F7
:1001C0004B405B009B0D20D01923DB06C91801238F
:1001D0001B05994220DB0324A40704251346AB40EA
:1001E0000BD3002B04D1EB0613409B00E34204D455
:1001F00001246407002312195941FF231B0599426A
:100200000BD2C9000143500F09E0CB0204D50143D2
:100210000803024305D0054830BDFF21C905084346
:1002200030BD084607210905884330BD0000C07F66
:10023000F0B50C46871A9C410D46861A9D4103D2A3
:10024000C01BA141D21963410D0D1F0DC94EEC1BFE
:10025000AE435CD07F057F0D0026002F51D02D05C9
:10026000AC46A943DD020123ED0A1B051D432023F3
:100270001B1B24D41746E740381871412F46E7402E
:10028000CC199D402818314661410C0D27D161449D
:100290009A4013D50023401C594152000ED140080A
:1002A000400001224B005205D34207D305204007EE
:1002B000C14201D5B04900E0B0493046F0BD6B0005
:1002C000002A00D001229A181F23203C1B1B01D5B5
:1002D000002302E0E540281871410C0DD7D001241D
:1002E00024050919C407CD0740084908E40F28432D
:1002F0006144002CD5D00024401C61419A40D0D1EB
:10030000CDE76A05520DD9D1C90FC907D5E79C4D74
:100310004E00002801D0012400E0002434195F00C1
:10032000002A01D0012600E00026BE19954FAC42FC
:100330000CD8AE420AD8B44206D001256D05EC4275
:10034000BCD010461946F0BD9942FCD00020394679
:10035000F0BDF0B51FB40C460F46811A9F412546EB
:10036000861A9D4106D20125ED076F40401ABC4117
:1003700052187B41210D1E0D8D1BAC467D4D8D43CA
:100380007ED075056D0D7CD00D05AE46AC431B03CC
:100390001B0B794D52429D41202366469B1B14D373
:1003A0001746F740381800260090744160462F46E3
:1003B0000741E41900989D402818664116D47146FB
:1003C00071189A4025D5012320E093182A466A41E6
:1003D0005200002B00D0521C1E23203E9B1B002BE2
:1003E00061DD3541EE1728186641E8D500187641E1
:1003F0005B1C9A4000D3401C4B05F3181524E340C6
:1004000010D3002B52D071467118D30FC01802D3ED
:10041000491C05B0F0BD0123DB079A42F9D1400821
:100420004000F6E701225205B21801D1002853D04E
:100430000123CC0ADB029943891E002A08D1020C51
:1004400003D0020C0004103902E0024600202039DB
:100450000023550B05D112020823550B01D152017F
:100460000D23550C01D112011B1DD50C01D1920099
:100470009B1C150D01D152005B1C2025EE1A01E0DA
:100480002CE022E00546F54015439840CA1AE107E2
:1004900069181305C918002ABBDA03204007081899
:1004A000C10FC9070FE071466118B2E7F1074008B4
:1004B0000843711071444A000CD001235B059A4235
:1004C000A7D2C90FC9070020A3E74905490D26D1C6
:1004D000002001E00028F4D100219AE7284D6600B1
:1004E000002801D0012100E0002171185F00002ADE
:1004F00001D0012600E00026BE19224FA94210D8E3
:10050000AE420ED8B14208D001256D05E94206D0B1
:100510001946A802414010467BE79C4201D0214683
:1005200077E70020394674E710B50C465C4005D5E6
:100530000124E4076340FFF70CFF10BDFFF778FECE
:1005400010BD30B40C465C4004D50124E407634080
:1005500030BC6DE630BCFCE670B50124E4076140B8
:100560000D465D4002D4FFF763FE70BD6340FFF7A8
:10057000F0FE70BDFF0700000000F0FF0000F07FFC
:100580000000E0FF0000F87FF0B58B4C0F09254616
:1005900089B0BD437BD01D092646AE43FAD00E4636
:1005A0005E402740F60F3E43254071D02401214292
:1005B000FBD0FF24AD19A4042D1B039501252D05A7
:1005C000DB02DB0AC9022B43C90A29431E010901C8
:1005D000040F130F050121431701880B8203914378
:1005E0002D098C46A90B1E438A039543B30B9A032E
:1005F00096433F09BA0B9403A74302962E467E43C7
:100600000497B6464E19D7190C46019654430597E0
:100610007E43371B7646BF1B3601B646BE0B3619E6
:1006200000967646BC043719009C01D3641C0094E4
:100630006400002F01D001263443029E049F7543BD
:1006400066467E430496760034196E003419009491
:10065000029C019E1C196643751BAE4606946546B6
:100660004519059C05956C43594375460891691ACF
:100670000191049E01465143A41B0491611A009C00
:100680000791E10605D061090122114302E072E001
:100690006EE06109089D00272C0A2D066918049D4B
:1006A0007C412A0A2D066918019D6241AC0DAD02FC
:1006B0006D185441079A910D920255196141029AA1
:1006C000644658435443069B059A5A43121A131B17
:1006D0009A0E9B015B187A41010B0005C31851412A
:1006E000220A200644195A419A4200D2491C01208C
:1006F0004002814203D315230226F64302E014236D
:100700000326F6432020C51AA9401746AF40DA4019
:100710000A4320460399D840091473181905511843
:10072000039A3843D2075140AC4009D0012294408B
:1007300006D30022401C5141002C01D1400840004A
:100740001E4A934212D3012203989206904207DB7D
:100750000520400709181A480143C012414004E02F
:10076000032040070818C10FC907002009B0F0BDD9
:100770000020F107FAE705180C464C4111486D427C
:10078000A04115D394181A465A410E48644290412C
:100790000ED301204A004005824209D35A0082420A
:1007A00006D35940C90F084AC90700201143DDE7A5
:1007B00000200649DAE700000000FF07FE070000FE
:1007C000FFFFFF7F0000E0FF0000F07F0000F87FE8
:1007D0000121C9050123411842001B06D3185B0EF5
:1007E0000AD0C1100722D206891840075242D142CE
:1007F00001D5520089187047090208D50146002A20
:1008000003D0C10FC907002070471046704742024D
:1008100002D0002002497047072109050143F4E78F
:100820000000F87F10B50202C11504D00123DB07D8
:100830001A43002914DBBE235B1A0CD41146D9409D
:100840001C46203C02D41046E04010BD2020C31AB4
:100850001046984010BDFF2241001206914202D975
:100860000020014610BDC017C043C11710BD1F2294
:10087000030C02D10F2200041CD0030E01D1000290
:10088000083A030F01D10001121F830F01D180002C
:10089000921E002801DB4000521ED20551180212A0
:1008A00051181922904004D3491C002801D149084D
:1008B000490008467047C10FC90700D040420122D5
:1008C00092071143D3E701218907D0E710B5FF2331
:1008D0001B0644009C421DD84C009C421AD803467B
:1008E000124A0B4307D4401A02D3EFF3008010BD25
:1008F000EFF3008010BD081A03D3EFF3008090439C
:1009000005E0EFF3008001219043C907084380F31D
:10091000008810BD0D231B041A4204D0114600208C
:1009200000F02DF810BD00F041F810BD000000905F
:10093000754600F043F8AE46050069465346C008C8
:10094000C000854618B020B5FFF70EFC60BCB64667
:1009500000260027C0C5C0C5C0C5C0C5C0C5C0C52C
:10096000C0C5C0C5403D490849008D46704710B517
:100970000446C046C0462046FFF7E5FB10BDC8024E
:1009800012D54803400F002804D0C803C0430121FA
:1009900088407047EFF30080000100090321090738
:1009A000084380F3008870470020704710B5024864
:1009B00000F008F810BD00000000C07F004870473C
:1009C0001000002010B50C461107090F092904D0AA
:1009D0000A290AD008290CD104E011460820FFF7A3
:1009E000CEFF06E0510606D501E0510601D50120F3
:1009F000C007214610BDD10607D501010909CC0861
:100A00004907000E0006044309E0410F2002490790
:100A1000000A0143200E00061D22D1410143084671
:100A2000E7E7000001491820ABBEFEE72600020000
:100A30007047B0B50146406A826B50231A4204D019
:100A4000006B026B08469047B0BD01214A02836BE0
:100A5000134383630268D3681B059B0F02D000F029
:100A6000A7F9B0BD837E002BF9D113681B07F6D51B
:100A700093685B070AD40346383354680C25AC43AB
:100A80005460FF2402341A68A24306E0826B2023DC
:100A90001343836303463C33C26B0A431A6000F07E
:100AA00087F9B0BD80B5406A816B40220A438263FA
:100AB000C16B04220A43C26300F07CF980BD80B59B
:100AC000406A00F076F980BD70B582B0054600241A
:100AD00001940068816803220A40012A05D1016857
:100AE000C9070ED1C16809040BD48168214A11429B
:100AF0000AD0A86B10210143A963E86B01242043AD
:100B0000E863204602B070BD816801220A4382601A
:100B1000A3480068A34902F0C9FE0190019800288B
:100B200017D00198401E01900198002811D001981B
:100B3000401E0190019800280BD00198401E0190A2
:100B40000198002805D00198401E019001980028C6
:100B5000E7D100F0B9FE064628680068C007D0D18A
:100B600000F0B2FE811B28680329F6D30168C9078B
:100B7000F3D1BEE71700008080B5024800F0A6FA66
:100B800080BDC0460801002080B5034800F09EFAF1
:100B9000024800F09BFA80BD900100204C0100202B
:100BA00080B5012000F08CFD022000F089FD80BDA1
:100BB00010B5402000F084FD0124200200F080FDEB
:100BC000600200F07DFD10BDEFF3108072B6FEE70D
:100BD000F0B581B0054600F077FE0646254F38682F
:100BE000C00716D13868800601D5202038603868E3
:100BF000C00606D43868400703D40024204601B05C
:100C0000F0BD3868C0061FD40020396849072BD5CD
:100C100023E00324002DF1D0681C0CD13868C007F4
:100C2000E0D03868C007DDD03868C007DAD038684F
:100C3000C007F3D1D6E700F047FE801BA842DDD8FD
:100C40003868C007F7D1CDE70B48C16902220A43D3
:100C5000C26110203968490706D50749CA690123CE
:100C60001343CB610421084338600124204601B0BE
:100C7000F0BDC0460C20024008030020F0B583B050
:100C8000002702973422825C012A02D1022003B09D
:100C9000F0BD054634350668B268520717D4009790
:100CA00001950B684A68012427469F403A4DAA42A5
:100CB00013D1B06AB843B0621846A0431028009F11
:100CC0003846019D54D1102B19D0384818E0816B5B
:100CD00020220A43826301204AE0B26A3A43B262A8
:100CE000C06A421E072A46D21846A0431028009F19
:100CF0003846019D3CD1102B0AD0A00509E02A48B6
:100D000026490A6802400A6038462F7003B0F0BDD9
:100D1000E00522490A6802430A60102B384627D1B1
:100D20001F4800681F4902F0C1FD0A21414302919A
:100D30000298002838461BD00298401E0290029864
:100D4000002811D00298401E0290029800280BD073
:100D50000298401E02900298002805D00298401E7A
:100D6000029002980028E7D138462F7003B0F0BDFA
:100D70002F7003B0F0BD22079042B5D072690720F2
:100D8000024089689142AFD072698243726101402A
:100D9000706908437061A7E701100000082701404F
:100DA0000800002040420F00FFFF7FFFFFFFBFFF52
:100DB0007047704770470000F0B581B001250028EA
:100DC00062D0044606462436806B002803D0A06B10
:100DD000C00609D554E000203074E063204600F0DE
:100DE00097F8A06BC0064BD420688168490747D4A8
:100DF00081214900A26B8A43911CA163826803216F
:100E00000A40012A05D10268D2070ED1C268120435
:100E10000BD4C26818239A43A3681343C36089079D
:100E200002698A43616811430161C168364A0A4018
:100E3000C260A16A491E4A1E91410903227E9203A3
:100E4000637EDB031343A27E55031D43E3682769DA
:100E50002B430B43B91E4D424D41AD001D4331782C
:100E600049002943E37E012B14D1002A0FD0A26B45
:100E700020231343A363E26B01231343E36309E0DD
:100E8000A06B10210143A163284601B0F0BD0122EF
:100E900012041143E269FF23C2339A4202D00A438B
:100EA000216A1143C2680A43C260E26A531E072BDB
:100EB00024D243690725AB4343612A404369134366
:100EC0004361C068114A02408A420AD10025E563A5
:100ED000A06B0121014302208143A163284601B098
:100EE000F0BDA06B1021014302208143A163E06BA0
:100EF00001252843E063284601B0F0BD01231B070C
:100F00009A42D6D0DDE7C0461902FEFFE7FF3F83D5
:100F1000F0B587B0044600260696059600681D4980
:100F2000884201D007B0F0BD01277A0200921A482A
:100F30004168114341604168114001910199790470
:100F400002680A430260006808400190049603208A
:100F500003900720029001980920C00602A900F022
:100F6000BBFB0E4D2020F90280220D4B48C52E60A0
:100F70006A60009AAA60E96028616E61083D2846AF
:100F800000F00EF9002801D0FFF71EFE6C62256309
:100F900007B0F0BD002401401410024008010020F9
:100FA00008000240F0B583B004460068806802275C
:100FB000400714D43420205C012810D00E4625466A
:100FC0003435012002902870607E01280AD0204626
:100FD0001746FFF779FD3A460746002802D0384603
:100FE00003B0F0BD0192A06B13490140029B1802AF
:100FF0000818A0630027E76321681C200860486880
:10100000102202434A602F70206B0D4A0D4D8562FD
:10101000C2620A4A0263CA681A43CA604031324651
:10102000019B00F0FBF82068816804220A4382607B
:10103000384603B0F0BDC046FEF0FFFFA50A000829
:10104000BF0A0008330A000810B52121425C01469E
:101050002031022A12D1026813680E24A3431360C0
:1010600013680124A3431360C26B006C23468340C2
:1010700053604C70002000220A7010BD042282636D
:10108000012000220A7010BDB0B52121415C022967
:1010900018D101462031026813680E24A34313605F
:1010A00013680125AB431360C26B036C2C469C4054
:1010B000546000240C704D70416B002900D08847AB
:1010C0002046B0BD042181630120B0BDF0B585B0DC
:1010D000C16B026C04273C460292944003910E6857
:1010E000214631404B424B41049005682868014637
:1010F00039404A424A411A4330D001950123022720
:10110000014639404C424C41029A974037421D46B5
:101110001946334600D02146049E34462034002927
:101120002CD008210840474247411046D3401907B8
:1011300000D53D46002D019B1ED119680E2291431A
:10114000196001210A468240039B5A60B163002264
:1011500022706170316B00290CD10DE0296889067D
:1011600002D42968B943296003994C60049EF16A4E
:10117000002901D03046884705B0F0BD019B1968B1
:10118000890605D419680A2291431960012161700A
:101190000021217003994F60B16A0029EAD1EBE781
:1011A000F0B585B000282FD0044606462036022030
:1011B0007070A2CC236860680190A0680290E0681B
:1011C0000390206904900868114A02402A433A4378
:1011D0001A43019802430298024303980243049879
:1011E00002430A600025E5620A48206335700A4818
:1011F0000C3C0818142102F059FB800020640120E7
:101200007070284605B0F0BD0125284605B0F0BD38
:101210000FC0FFFF00000240F8FFFDBFF0B582B035
:1012200004462020255C0220012D2AD026462036A7
:10123000012535707778012F21D1022070700020B0
:10124000A06326683768AF433760E76B0097276C69
:101250000195BD40009F7D6073606368102B174649
:1012600000D00F46B760102B00D01146F1603168F6
:10127000E26A002A019B06D00E22114309E00021F8
:10128000317002B0F0BD0A2211433160316804228E
:101290009143316031681943316002B0F0BD000004
:1012A000B0B5044600F010FB0546601C02D00448AF
:1012B0000078041900F008FB401BA042FAD3B0BD2F
:1012C00000000020F0B583B00D460146854E307E0B
:1012D000012803D10227384603B0F0BD0127377635
:1012E0000C6882480291FFF773FC012C14D100288E
:1012F00045D10020F061284C206804252843206057
:1013000020684021014321607848FFF761FC0746CF
:101310002068A843206032E0002830D100200190EE
:10132000C043009528600298456880688002401993
:10133000854224D2184C0198F0612068022630437F
:101340002060656020684021014321606748FFF705
:101350003FFC07462068B0432060002F0CD10120DD
:1013600080022D1802994868896889020818854208
:101370005C4EE0D3019F02E000980560594E0020CA
:101380003076384603B0F0BD0348016880220A4336
:10139000026000207047C04610200240F0B585B0C2
:1013A000504C257E012D03D10227384605B0F0BDF3
:1013B00001AD0FC50127277600F086FA05464A4E93
:1013C0003068C00708D0494C00F07EFA401BA042AC
:1013D0002CD83068C007F7D13068800601D52020AE
:1013E00030603068C0063F4A09D43068400706D4F0
:1013F000019902291DD1009101291ED01EE03068FB
:10140000C00604D400203168490708D40CE0D06934
:1014100002210143D16110203168490704D5D16907
:101420003943D16104210843306040E003272D4A4D
:101430003DE004200090012900D100910025019594
:101440000198D06170680127384370602A010398C1
:101450000499FEF79BFE6900029A885200F034FA64
:1014600004463068C00706D000F02EFA001B1F4962
:101470008842F6D915E03068800601D5202030601A
:101480003068C006174A17D43068400714D4706813
:101490000121884370606D1C002700988542CFD1E0
:1014A00005E0394603270F4A7068884370600020C2
:1014B0001076384605B0F0BD3068C00601D4002073
:1014C00004E0D06902210143D1611020316849074D
:1014D00004D5D1693943D1610421084330603946CC
:1014E000E2E7C046080300200C20024050C3000081
:1014F0000648C168090601D400207047044901600C
:1015000004490160C068C0B2C009704704200240AD
:1015100023016745AB89EFCD70B53F281EDD012162
:101520004A0290422BD00902884239D0402800D08C
:10153000ABE05D48042181610920C506202100241B
:101540002846224600F0B7F908210122284600F07B
:10155000B2F95A48214601F0E7F870BD01282BD0B6
:10156000022800D091E0504C2069FFF731F9504A31
:10157000504BFEF7D9FFFEF71DFE206170BD4A4CAF
:101580006069032800D980E07844007940008744EE
:1015900001222551A069002877D00020A06170BDEC
:1015A000414C2069FFF714F9414A434BFEF7BCFF59
:1015B000FEF700FE206170BD3B484169032964D8F5
:1015C0007944097949008F440161666B0121C26940
:1015D0000261416170BD2069E06101E02069206223
:1015E000FFF786FF204640302146FFF76BFEE0699B
:1015F000FFF718F902460B4602252C4E28463146C5
:10160000FFF7CCFE206AFFF70DF902460B46311DAD
:101610002846FFF7C3FE606AFFF704F902460B464F
:10162000083628463146FFF7B9FEFFF7ADFE01F058
:10163000F9FB70BD20696062FFF75AFF2046403019
:101640002146FFF73FFEE069FFF7ECF802460B4644
:101650000225164E28463146FFF7A0FE206AFFF706
:10166000E1F802460B46311D2846FFF797FE606AF7
:10167000FFF7D8F802460B46083628463146FFF7F2
:101680008DFEFFF781FE01F0CDFB70BD0221026AE5
:101690000261416170BD0321426A0261416170BD16
:1016A00000210161416170BD70000020007C0008D4
:1016B0009A9999999999B9BF9999B93F3802002097
:1016C00080B504490A68024202D00860FFF724FF8F
:1016D00080BDC04614040140F0B58EB007466E4888
:1016E000874201D0052000E00320009008680C909C
:1016F000002800D1CEE00123002403930B940A9428
:101700000791099711E00C9A1043644AD060086869
:101710000C90D840241D5B1C0B9A921C0B920A9AC9
:10172000521C0A92002800D1B4E05A1E0398089275
:1017300090400C9A02400C92E9D005934B68032626
:101740001A463240551E012D0694029318D80326DE
:101750000B9FBE40099CA168B143079DED68BD4049
:101760000D43A560D906C90F089DA940656885434A
:101770000D436560069C0799F3430A9845000BE00A
:1017800030460B9DA840C343032A05D104930B9810
:101790003246099F029B22E0099F2E46F8681840B6
:1017A0008D680196B5400543FD60022A049314D16B
:1017B0001C2020400F218140089AD2089200BA18BC
:1017C000156A8D4307990E6986402E430799166264
:1017D000099F4B6803221A4000E0029B0198824057
:1017E0003868049D2840104338609803800F059B9B
:1017F0008DD05D4A106801210843106010680840D0
:101800000D900C2222400F2595400320089E864310
:101810000D98234C3059A84335190926F606099C22
:10182000B442099F09D01F4CA74207D01E498F42DE
:101830000099069C03D1022101E00021069C914001
:10184000014329601548006807994D68EA0302D5ED
:101850000C9A104301E00C9A9043104A10605068B3
:10186000AA0302D50C9A104301E00C9A90430B4A4C
:1018700050609068EA0202D50C9A104301E00C9A7D
:101880009043064A9060D068AA0200D53BE70C9AC4
:1018900090433AE70EB0F0BD000C00480004014050
:1018A00008000140000400480008004800690840A2
:1018B000411E88417047002A02D01822815070478B
:1018C0002822815070470000054800687047C046D4
:1018D0001A48007802490A68101808607047C04624
:1018E0002803002010B5C548016810220A43026091
:1018F0000024204600F004F800F022F8204610BD35
:1019000070B504467D20C0000C4E317801F0CEFF4A
:101910000146C248006801F0C9FF00F04FFC0125F4
:10192000032C08D8002806D10025E84321462A4682
:1019300000F028F87460284670BDC0460000002002
:1019400082B0094801680122114301600168114019
:1019500001910199110742680A43426040680840BA
:101960000090009802B0704718100240002805D47B
:101970001F21084001218140014801607047C04695
:1019800000E100E0002805D40322034693430C4AFB
:101990009A1806E00F220240083A03239A43074BA5
:1019A000D2188007C00E8901C9B28140FF2383404D
:1019B00010689843084310607047C0461CED00E073
:1019C00000E400E0F0B585B004468078C0073A4BEB
:1019D0004FD00120039001071A1F106808400290A1
:1019E00006D11068084310601068084004900498FD
:1019F00000920191314E3068C00513D4039807025C
:101A0000306838433060FFF75FFF05463068384282
:101A100008D1FFF759FF401B6428F7D90325284652
:101A200005B0F0BD03252802234B1968014012D0F0
:101A30006268024091420ED00398000419681A6847
:101A400002431A601A6882431A6008461C4A104012
:101A50001860C80722D11868194908406168014315
:101A600019600298002804D1009A106801998843EF
:101A700010602068C10705D0196903229143A2684C
:101A80000A431A6100258006C9D5186910218843C8
:101A9000E16801431961284605B0F0BDFFF714FF66
:101AA0000646574F044B18688007D4D4FFF70CFF45
:101AB000801BB842F6D9B2E7201002400070004007
:101AC000FFFCFFFFF0B581B000284FD004464B4A21
:101AD0001368012003408B4208D213680126B343E8
:101AE0000B431360126832408A4240D10091216852
:101AF0008A075A4B11D54A0707D507221202574BBE
:101B00001B681343554A1360544B1A68F0239A43D9
:101B1000A3681343514A1360504BC9072AD1374970
:101B2000086801263040009A904205D90868B04301
:101B300008600868C0071AD12078400706D507203A
:101B4000000219688143E0680843186019680C2294
:101B50000A404348082A18D18A02120F414B9C5C64
:101B60003E4B9A6AC90332D4404837E001263046DA
:101B700001B0F0BD61681A1F022908D001290BD1FC
:101B8000126892030646F2D50AE0044627E012687E
:101B900092010646EBD503E0126892070646E6D5A9
:101BA00018680326B04308431860FFF78DFE074608
:101BB000134D2A4B18680C21014060688000814257
:101BC000ADD0FFF781FEC01BA842F2D9CFE70F21AD
:101BD0000A402549895C01F069FE204B444318689E
:101BE0000006000F0749085CC4400C48046000264A
:101BF0003046FFF785FE304601B0F0BD00200240C0
:101C000088130000EC3C0008044800681349096888
:101C10004905490F024A515CC8407047080000203E
:101C2000FC3C000810B50D490A680C2313400C4811
:101C3000082B09D193021B0F0A4CE45C896AD2037A
:101C400003D40A484443204610BD0F221140064ADF
:101C5000515C01F02BFE4443204610BD04100240AD
:101C600000127A00043D0008143D000800093D0000
:101C7000F0B587B004460120002C00D1EAE10490C1
:101C80002078C007F44E059426D071680C200140DE
:101C900004291AD071680140082902D17068C00374
:101CA00013D4616801204704002900D184E105298B
:101CB00000D198E1012900D199E1010432688A43F9
:101CC000326081043068884394E13068800303D532
:101CD0006068002800D1BDE0207880071AD57068C0
:101CE0000007800F07D070680C210140082975D1CA
:101CF0007068C00372D430688007059C03D5E06823
:101D0000012800D0A6E03068F82188432169C90085
:101D100001433160059C2078000724D420784007D7
:101D200036D42078C00600D4B4E005984069411D3F
:101D300000D1A3E0012800D0F4E0706B042101433E
:101D40007163706B012101437163FFF7BDFD0546AF
:101D5000706B800700D595E0FFF7B6FD411B0320AF
:101D60000229F5D976E1706AE169002960D0012184
:101D700008437062FFF7A8FD0546706A8007CDD45E
:101D8000FFF7A2FD401B0228F7D9032007B0F0BDE2
:101D9000012003900107F0690840029006D1F06924
:101DA0000843F061F0690840069006980191AB4F36
:101DB0003868C00528D40398040238682043386086
:101DC000FFF782FD0546386820421DD1FFF77CFDF4
:101DD000401B6428F7D9032007B0F0BD3068059C8C
:101DE000E168002939D0012108433060FFF76CFD1C
:101DF00005463068800786D4FFF766FD401B022841
:101E0000F7D9032007B0F0BD05988068944F0028EB
:101E100000D19CE0052800D1AEE0012800D1AFE060
:101E2000306A039988433062306A04218843AAE00B
:101E3000012188437062FFF747FD0546706A8007FD
:101E400000D46BE7FFF740FD401B0228F6D90320C2
:101E500007B0F0BD049807B0F0BD012188433060A1
:101E6000FFF732FD05463068800700D452E7FFF7E0
:101E70002BFD411B03200229F5D9EBE0706B0421F7
:101E800088437063706BF821884305998969C9009C
:101E9000014371630598046A002C1ED070680C2100
:101EA000014008291CD1012C049800D1D2E0012066
:101EB000030471680B40F26A059D6C6AA34200D06E
:101EC000C8E00F231A40EC6AA24200D0C2E09A0494
:101ED0001140AA6A914200D0BCE0002007B0F0BDDA
:101EE0000120020631680492914331604706FFF7F2
:101EF000EBFC0546022C0BD1049C3068384200D123
:101F000088E0FFF7E1FC411B03200229F5D9A1E09D
:101F100030683842E1D0FFF7D7FC411B032002298B
:101F2000F6D997E0706B042101437163706B012156
:101F300088437063FFF7C8FC0546706B8007A9D51E
:101F4000FFF7C2FC411B03200229F6D982E0306A68
:101F5000039988433062306A042188433062FFF776
:101F6000B3FC0546306A80071CD5FFF7ADFC411B6A
:101F70000320B942F6D96DE0306A04210143316291
:101F8000306A039908433062FFF79EFC0546306AC9
:101F9000800707D4FFF798FC401BB842F7D903200D
:101FA00007B0F0BD02980028059C00D0B9E6F069A2
:101FB00001998843F061B4E6010432688A433260D3
:101FC0008004316881433160FFF77EFC0546059C43
:101FD0003068384200D17FE6FFF776FC411B0320D2
:101FE0006429F5D936E0810432680A43326001047D
:101FF000306808433060FFF767FC054630683842B8
:1020000000D069E6FFF760FC401B6428F6D9032086
:1020100007B0F0BDF06A0F218843059AD16A0143E9
:10202000F1623D20000471688143906A0843516A5F
:1020300001437160306820433060FFF745FC04467F
:102040003068384200D048E7FFF73EFC011B032010
:102050000229F5D907B0F0BD001002400070004021
:1020600088130000F0B585B000280CD00446054662
:102070005C3541208600606A002807D0002020617E
:102080002046143007E0012005B0F0BD6068B04282
:1020900003D020461C30002101600027A762687829
:1020A000002804D100202870204600F059F80220B2
:1020B0000495019068702068016840229143039064
:1020C0000160E168254A012591422A4600D33A463B
:1020D0001203ED020D430F2738020290854201D012
:1020E0000025A5626568A768354021239B023B4017
:1020F0005B192569019805401D436069012318405B
:102100002843FC36A7693E400643E0693825054070
:102110003543206A802606402E435803A56A0540B1
:102120003543039E3560380C042505400298014074
:102130000A432A43606A102101401143606B082260
:1021400002400A437260D802F1698143F1610020C4
:10215000206604994B7005B0F0BDC0460107000031
:1021600080B586B000681349884201D006B080BDB2
:10217000012001036B4A53680B43536053680B40C3
:1021800001930199800411680143116011680140B5
:1021900000910020059003210491039002200290F9
:1021A000282001900098044801A9FFF795FA06B08D
:1021B00080BDC0460030014000040048401E010EB2
:1021C00001D0012070470749074A5060074803685B
:1021D0000B400321890759180160002090600721F6
:1021E00011607047FFFFFF0010E000E020ED00E00D
:1021F000B0B5002824D0044605463C356878002850
:1022000004D100202870204600F052F802206870A7
:1022100020680368DE49884202D0234A904211D1E7
:1022200070229343A2681A43204B98420EDD8842E5
:1022300012D0D84B98420FD0D74B98420CD031E0F7
:102240000120B0BD1A46194B9842F0DC164B98425B
:1022500002D0334B984225D103231B029A432369B2
:10226000134380229343A2691A430260E268C26268
:1022700062688262884205D0C649884202D0F74926
:10228000884201D16169016301214161A972A9708C
:10229000E97029716971A971E971297269726970AE
:1022A0000020B0BD1346DCE700040040FF2B0140D6
:1022B00081B00068EA49884201D001B0704701202E
:1022C000000205490A6802430A600968014000915A
:1022D000009801B07047C0461C10024080B586B01F
:1022E0000068DF49884201D006B080BD012040046B
:1022F0000C490A6802430A60096801400091042001
:10230000059000200490039002200290102001907C
:102310000920C006009901A9FFF7DEF906B080BDCB
:102320000020004014100240F0B582B03C23C35C92
:10233000012B02D1022002B0F0BD03463C3302243F
:10234000E241032A71D8C0467A4412795200974478
:10235000012339500268106A0125A8431062106AEF
:10236000A0438E68064350680F689569ED4CA24201
:10237000019706D0E84CA24203D0E84CA24200D01C
:10238000D6E00C24A643CC680427BC433443E54E76
:10239000B24200D0D0E0D5E00268106A1024A04319
:1023A0001062146A20208443886800012043566824
:1023B0000C6801949469DB4DAA423BD00746AA42BF
:1023C00042D147E0012425020268106AA843106246
:1023D0006002146A844388680002204356680C68CF
:1023E0000194D569F24CA24254D00746A2425DD175
:1023F00062E0012425030268106AA8431062156A8E
:1024000050688E6801960E680096D769E84EB24211
:1024100005D0E84EB24202D0E74EB2426AD1A603DE
:10242000B0434E69B601064365E0012000211970F2
:1024300002B0F0BDC027B843CF683F014025AF438D
:10244000DB4D0743AA4205D0DA48824202D0DA487F
:10245000824208D103208002864348698D6980004A
:102460003043AE00064310461830566073252D02E7
:10247000AC43019D2D02254395614C68946317621E
:102480000124E50296692E439661A4029569A5434D
:1024900095614AE00327BF02B843404CFF3CCF6838
:1024A0003F022740C24C0743A24205D0C1488242A6
:1024B00002D0C148824208D1032000038643486904
:1024C0008C69000130432601064310461C305660DB
:1024D0007324A543019C2543D5614C68D4631762DE
:1024E000D46908252543D561D4690425AC43D4615A
:1024F000096944E0064610461C30566073263602D1
:10250000B743009E36023E43D6614E6816646603AA
:10251000B543019E36032E431662E502D6692E436B
:10252000D661A402D569A543D5610969090226E0EF
:1025300034469F4EB24205D09E4EB24202D09E4ECD
:10254000B24207D103263602B0434E698F69064373
:102550003E4300E00646019F104618305660732641
:10256000B5433D4395614D685563146294690825F0
:102570002543956194690425AC4394610969026817
:102580000A43026000200021197002B0F0BDC0466D
:10259000002C01400048014000440140FFFBFFFFC8
:1025A000B0B5002824D0044605463C35687800289C
:1025B00004D100202870204600F054F802206870F2
:1025C000206803687A49884202D0554A904211D166
:1025D00070229343A2681A431F4B98420EDD884233
:1025E00012D0744B98420FD0734B98420CD031E00C
:1025F0000120B0BD1A46184B9842F0DC484B984277
:1026000002D0174B984225D103231B029A4323691A
:10261000134380229343A2691A430260E268C262B4
:1026200062688262884205D06249884202D062496B
:10263000884201D16169016301214161A972A970D8
:10264000E97029716971A971E971297269726970FA
:102650000020B0BD1346DCE7FF2B014000440140E1
:10266000002000407047000002463E32002908D09A
:1026700008290CD0042910D1531C1B78012B0AD136
:102680000FE01378012B06D10223137013E0931C83
:102690001B78012B05D001207047D31C1B78012B20
:1026A000F9D10223082903D0042903D1537002E091
:1026B000937000E0D3701F221140012213468B401B
:1026C0000068016A99430162016A19430162114974
:1026D000884206DC1249884210D03549884206D02B
:1026E00013E03449884202D0334988420DD1D103E6
:1026F000436C0B4343642E49884206D1816807230B
:102700000B40062B01D10020704701681143016086
:1027100000207047FF430140004801400044014051
:1027200000040040002C014070B51F230B40012223
:1027300014469C4003681D6AA5431D621C6A1C6206
:102740001A4C1B4DAB4205D01A4DAB4202D01A4D6C
:10275000AB4206D11D6A254203D11D6A174E354290
:102760000AD01D6A25420ED11C6A144D2C420AD192
:102770001C6894431C6006E0D5035E6CAE435E6447
:102780001D6A2542F0D03E30082906D0042907D022
:10279000002908D10270002070BD8270002070BD39
:1027A0004270002070BDC270002070BD1111000089
:1027B000002C014000480140004401404404000056
:1027C00070477047F0B589B00368D9691F68202247
:1027D0000797049217407C427C410125EA02164685
:1027E0002F3608910E40203E711E8E4126439E6872
:1027F00055D0029703930595069007465837114622
:102800000F3108980842079D06D0D449294001237A
:102810001E40711800D084E0029710232946194009
:102820004E424E41089919404F424F410698016E61
:10283000012905980446039937D13C46002C0446EB
:1028400036D0002C069F37D08021294003464842CD
:1028500048410899090600D50346002B00D1DAE06B
:10286000402005406B426B410899490600D505930D
:102870000599002911D1EFF31081012282F310880C
:102880003A6813688343136081F310880020B866A8
:102890000498B867384600F0BFFA09B0F0BD416E41
:1028A0000029FAD0884709B0F0BD002C0446C8D1F1
:1028B0003446002C069FC7D10B628868400600D5BD
:1028C000B1E0029A508811885288002AE5D0081A8F
:1028D0000104E2D0EFF31082012181F31088092472
:1028E00064013D682E68A6432E6082F31088EFF3E2
:1028F000108281F310883C68A5688D43A56082F33F
:102900001088049AFA6700227A663A66EFF310821A
:1029100081F3108839680C689C430C6082F310883E
:10292000C8E00192190229404C424C41089DE90738
:1029300005980146039A00D02146002903D113626D
:10294000B96A1943B96274427441A907014600D5B6
:102950002146002905D102211162B96A04240C43E1
:10296000BC6274427441690701460BD521460029B7
:102970000AD104211162B96A02240C43BC622907FE
:102980000CD503E00029F4D0290707D502990E439E
:1029900004D008211162BC6A0C43BC629906079AF4
:1029A0000A40544254412A4601990D42054600D03E
:1029B0002546002D06D1039801990162B96A049851
:1029C0000143B962B96A0029069D029900D164E702
:1029D0003846049E32404C424C41002A00D00594B7
:1029E00005990029044603981F4605D1696E002900
:1029F00002D0284688472868A16A28230B408168AE
:102A000040200140C9185BD12846FFF7DAFE0020BC
:102A1000A06209B0F0BDB96E002900D13DE738468B
:102A2000884709B0F0BD396F0868426894B2002C3D
:102A300000D132E702980088844200D32DE7029E3D
:102A400072808969202933D0EFF31081012080F34F
:102A50001088444A20323C6825681540256081F37F
:102A60001088EFF3108180F310883A6894688443EB
:102A7000946081F31088EFF3108180F310883A6836
:102A800094684025AC43946081F310880499F967F9
:102A900000213966EFF3108180F3108838680268EE
:102AA0009A43026081F31088386FFEF7CDFA3088C0
:102AB0007188401A81B23846FFF782FE09B0F0BD36
:102AC000EFF3108187F31088092252012B681C68EC
:102AD00094431C6081F31088EFF3108187F3108812
:102AE0002A6893680897BB43936081F31088296E26
:102AF00001290BD1EFF31081089A82F310882A681C
:102B000013681024A343136081F31088EE6700213B
:102B10002966696629688968490619D5EFF3108125
:102B2000089A82F310882A6893688343936081F33C
:102B30001088286F00280BD009494163FEF7A4FADA
:102B4000002800D1A9E6286F416B884709B0F0BD85
:102B50002846FFF736FE09B0F0BDC046200100044C
:102B6000C52F0008DFFEFFFFF0B583B0002840D07E
:102B7000044607467437806F002804D1002038705F
:102B8000204600F057F82420A0672068016801253E
:102B9000A9430160204600F0CBFA012826D0606AE4
:102BA000002802D0204600F0A4F90126F002216896
:102BB0004A6882434A6088680822904388600868AF
:102BC000304308600025FD60FEF77EFE0346206866
:102BD0000168090713D516480090710500222046A8
:102BE000029300F02BFB002807D00325284603B0F2
:102BF000F0BD0125284603B0F0BD2068029B0068A7
:102C000040070CD50A480090B1050022204600F08C
:102C100015FB002803D00325284603B0F0BD202073
:102C2000A067E0673D702566284603B0F0BDC0464A
:102C3000FFFFFF01F0B587B0044600682B498842CA
:102C400001D007B0F0BD01208103294A53680B432E
:102C5000536053680B40029302998004116801434A
:102C6000116011680140019100260696032005902D
:102C7000049602200390C020029001981D4802A9EA
:102C8000FEF72AFD1C4D80271C48143041C52E60DC
:102C90006F60AE60EE602E616E61083D2846FEF703
:102CA0007FFA002801D0FDF78FFF6C622567144D75
:102CB000102012492960291DC1C12E616E61AE61CB
:102CC000EE612846FEF76CFA002801D0FDF77CFF84
:102CD0006C62E5661B24002120460A46FEF752FE80
:102CE0002046FEF743FE07B0F0BDC0460038014065
:102CF00014100240000400484C0100201C00024057
:102D000090010020F0B583B013460A460446C16F17
:102D10000220202912D10125002A0CD0002B0AD034
:102D200001263103A5688D420CD1D1070AD0216953
:102D3000002907D13546284603B0F0BD0546284690
:102D400003B0F0BD27465837397F01290546F2D038
:102D5000002525663E7720684068000210D5EFF315
:102D60001080029086F31088B006019020680090D1
:102D700001680198014300980160029880F310886F
:102D8000BD623B8062652220E067206F002815D07D
:102D90001F4981621D49C1621B4901634563216866
:102DA0002431FEF73BFA002808D01020B8623D77A6
:102DB0002020E0673546284603B0F0BD3D77EFF3AD
:102DC0001081012080F31088020223681E681643D8
:102DD0001E6081F31088EFF3108180F31088226861
:102DE00093680343936081F31088EFF3108180F3BD
:102DF00010882068826840231343836081F3108821
:102E0000284603B0F0BDC046DB2F0008153100088E
:102E10008B300008704770477047FEE7FEE7704749
:102E20007047000070B5214EF069FDF7D1FC204AD3
:102E3000204BFDF7A9FBFDF7BDF9F064306AFDF703
:102E4000C7FC1D4A1D4BFDF79FFBFDF7B3F9044678
:102E50003065706AFDF7BCFC194A1A4BFDF794FB0C
:102E6000194A1A4BFDF760FBFDF7A4F9706520467F
:102E7000FDF7AEFC04460D46154A164BFDF784FBE4
:102E8000FDF798F9F060144A144B20462946FDF7E7
:102E90007BFBFDF78FF9B060114A124B20462946A3
:102EA000FDF742FBFDF786F9706070BD70000020F1
:102EB0005EBA490C029B63401283C0CAA16373408F
:102EC00036CD3B4ED1055F404260E5D0A2639340D2
:102ED0009A9999999999A93FCDCCCCCCCCCCEC3F7F
:102EE000E3361AC05B44574080B5FEF7F1FC80BD65
:102EF0007047B0B5416ACA070CD18A0714D44A0793
:102F00001CD40A0724D4CA062CD48A0634D44A0610
:102F10003CD44CE00122520403685C689443826A0A
:102F200022435A608A07EAD50122120403685C68CA
:102F30009443C26A22435A604A07E2D501229204AE
:102F400003685C689443026B22435A600A07DAD52F
:102F50000122D20303685C689443426B22435A60A7
:102F6000CA06D2D50122120303689C689443826B7F
:102F700022439A608A06CAD50122520303689C68DC
:102F80009443C26B22439A604A0610D5012213056E
:102F9000026854689C43056C2C4354609D4206D1E2
:102FA00003235B0554689C43436C23435360090629
:102FB00007D50121C904026853688B43806C18430C
:102FC0005060B0BD80B5406A0146523100220A818E
:102FD00052214252FFF7F5FB80BDF0B581B0406A47
:102FE000816FC36F024652320468A5682D0612D560
:102FF000212910D100211180EFF31081012484F3E5
:10300000108804682568C026B543256081F31088C0
:1030100020218167046801468031A46864062CD5AC
:10302000222B2AD100231381EFF31084012282F393
:10303000108809256D0106683768AF43376084F34F
:103040001088EFF3108482F310880568AE68964309
:10305000AE6084F31088046E012C0AD1EFF3108463
:1030600082F31088026815681026B543156084F352
:1030700010882022C267436603660A681023134340
:103080000B60FFF79EFB01B0F0BD70B50146406AD2
:10309000024658328969202932D000215180EFF34D
:1030A0001083012181F310880C0205682E68A64365
:1030B0002E6083F31088EFF3108381F31088046887
:1030C000A5688D43A56083F31088EFF3108381F327
:1030D00010880468A5684026B543A56083F310886E
:1030E0002023C367036E012B0AD1EFF3108381F312
:1030F000108801680C681025AC430C6083F31088BD
:10310000016E012903D11188FFF75AFB70BDFFF74B
:1031100081FE70BD80B5406A016E012905D158213C
:10312000415A4908FFF74CFB80BDFFF774FE80BD94
:10313000B0B5044600680168384A0A40A1682369AE
:103140000B4365691D43E1690D4315430560032287
:10315000120343689343E2681A434260A269236AF8
:1031600013430B221202856895431D4385602C484A
:1031700000688007000F2BA213580125EA032D4891
:1031800091420FD1082B43D87B441B795B009F44AD
:10319000043F203F193F3F3F1F00FEF735FD002849
:1031A00017D113E0082B33D87B441B795B009F4475
:1031B000042F242F1D2F2F2F2300FEF725FD00287D
:1031C0001BD117E0FEF72EFD002802D100251FE0DD
:1031D0001046400061684A08101800F067FB164965
:1031E000014015D00007400F08430EE0FEF71AFD1E
:1031F000002802D100250BE0104661684A0810182B
:1032000000F054FB80B2102802D32168C86000256A
:1032100000206066A0662846B0BDC046F369FFFF87
:103220003010024000000000040000000800000010
:103230000200000000127A00F0FF0000F0B587B035
:1032400016460F4605460468E1693940C91B4A42E3
:103250004A410020B24224D1069304952A46743292
:103260000C9D002D1FD0691C43D1E1693940C91B59
:103270004A424A41B24214D1E1693940C91B4A422B
:103280004A41B2420DD1E1693940C91B4A424A4123
:10329000B24206D1E1693940C91B4A424A41B242B1
:1032A000E3D007B0F0BD0392FEF70EFB049CEFF3F2
:1032B0001081012080F310880D22520123681D68BF
:1032C00095431D6081F31088EFF3108180F310881F
:1032D000226893688343936081F310882020A0675D
:1032E0007C3403990020087020202060032007B060
:1032F000F0BD0392029001200190C0020590049C51
:1033000006E0C0693840C01B41424141B1422DD165
:10331000FEF7DAFA0699401AA842C8D82068016870
:103320004907EED5C169059A1142EAD005990162B3
:10333000EFF31080019D85F310880D21490122686B
:1033400013688B43136080F31088EFF3108085F3CC
:10335000108821688A68AA438A6080F31088202038
:10336000A067E06703990C460C34BBE7029807B0EE
:10337000F0BD000080B50248FFF724FA80BDC046CA
:10338000800200209CB0FEF7ADFA00251695159539
:1033900017951495139512951B95012001051A9107
:1033A00001041991022618961190112110911024F0
:1033B000169415900B950A95099510A8FEF758FCE0
:1033C000002803D0EFF3108072B6FEE707940F9544
:1033D0000E950D9607270C970CA801242146FEF7A1
:1033E00071FB002803D0EFF3108072B6FEE706975A
:1033F0000A95089408A8FEF7E5FA002803D0EFF331
:10340000108072B6FEE71495A005CD4A11680143FD
:103410001160116801400C910C986004116801431F
:103420001160116801400C910C98A00411680143CF
:103430001160116801400C910C980920C706C14920
:1034400038462246FEF737FA6520410138462A46BB
:10345000FEF731FABC4807992246FEF72CFA13957D
:1034600012951194B9481090059410AC3846214635
:10347000FEF732F9139512960598119020201090BE
:10348000384604972146FEF727F912952120039626
:10349000060411960D2080010290109038462146B6
:1034A000FEF71AF91295119603261096A6482146A2
:1034B000FEF712F913961295059F11970698800250
:1034C000109004982146FEF707F90196139612957D
:1034D000119707981090EA482146FEF7FDF8052459
:1034E000204639462A46FEF74DFA2046FEF73EFAB8
:1034F000069C204639462A46FEF744FA2046FEF747
:1035000035FA2421DF4847548762056241218C0047
:103510002146BD313A040823DB4E0660039E456018
:103520008560C560066143618261C161FDF744FC4D
:10353000002803D0EFF3108072B6FEE7CF4F10954E
:1035400005990807129008031190CE4810A9FDF7BD
:1035500095FB002803D0EFF3108072B6FEE70598C4
:103560001090C84810A9FDF789FB002803D0EFF39D
:10357000108072B6FEE71096C24810A9FDF77EFBD8
:10358000002803D0EFF3108072B6FEE7BF48056253
:1035900045628562069AC26205634563BC491202B0
:1035A00012C0FC34056042608660059EC6600461FE
:1035B000079941610838FEF755FD002803D0EFF365
:1035C000108072B6FEE738683043386038683040A3
:1035D000109010980924204629462A46FEF7D2F971
:1035E0002046FEF7C3F90A24204629462A46FEF75C
:1035F000C9F92046FEF7BAF9A6480C21E122520289
:10360000A54B036042608560C560056141618561CD
:10361000C56105624562FFF7A7FA002803D0EFF302
:10362000108072B6FEE79D4885619D49029A7F32FF
:1036300022C0056042608560169515951495139516
:103640000838FEF7D5FD002803D0EFF3108072B6DE
:10365000FEE79248FEF7A4FF002803D0EFF31080A6
:1036600072B6FEE714951295182011906020109004
:103670008A4810A92A46FEF757FE002803D0EFF328
:10368000108072B6FEE78548FEF728FE854C21467D
:1036900034317C480C22FDF785FC214628317D48D9
:1036A0000A22FFF72FFB8048256460640598A06418
:1036B000FFF7B8FB16E004207A4EB0612021002409
:1036C000049D28462246FEF7F6F8082101222846E6
:1036D000FEF7F1F871482146FFF726F8B069002897
:1036E00000D0C2E020250122049E304629460792E0
:1036F000FEF7E1F800216948FEF7B6FF40213046A9
:10370000FEF7D4F8044630462946FEF7CFF82040AD
:103710000128D0D16420FDF7C3FD082100220498C0
:103720000692FEF7C8F8FEF7CFF806465D4DA86989
:10373000042818D191E05B4DA869042813D18CE0CE
:103740001410024008900000000400488880000027
:10375000082100222046FEF7AEF8FEF7B5F806462F
:10376000A869042879D0686BFDF7ADF80146E86CCC
:1037700000F0AFF9002842D0A86BFDF7A4F8074687
:103780006868394600F08DF900284FD0E86BFDF7E6
:103790009AF80146686D00F084F9002823D0AC68DF
:1037A000ED682046294600F09FF9394600F084F97B
:1037B0000028069A09D12046294600F02FFA3946FA
:1037C00000F087F90028079A04D10798C1030498EC
:1037D000FEF771F8FEF778F8801BFA28ABD3FEF7F6
:1037E00073F80646A7E70398A86108210122049C04
:1037F0002046FEF760F8A8690028A9D031E00198BA
:10380000A861202100242E46049D28462246FEF76A
:1038100052F8082101222846FEF74DF81F4821469C
:10382000FEF782FFB069002823D15BE7079FAF61F5
:10383000202100242E46049D28462246FEF73BF810
:10384000082128463A46FEF736F8B069002800D12C
:1038500048E7144804614461FEE70020286168617C
:10386000FEE7069828616861FEE70E48046144613E
:10387000FEE70C4804614461FEE7C04614100240B4
:1038800000040048C800002000240140D4010020AA
:103890000030014080020020003801403802002042
:1038A0000020004070000020007C000843088B428C
:1038B0001AD3002203098B4279D3030A8B425ED3C9
:1038C000030B8B4242D3030C8B4227D30902FF2206
:1038D00012BA030C8B4202D31212090203D0030B5B
:1038E0008B4233D31AE0D3E0411A8041401C704729
:1038F00003460B4371D443088B42F5D300220309DE
:103900008B4254D3030A8B4239D3030B8B421DD312
:10391000030C8B4202D394466EE0090AC30B8B4220
:1039200001D3CB03C01A5241830B8B4201D38B03CB
:10393000C01A5241430B8B4201D34B03C01A524170
:10394000030B8B4201D30B03C01A5241C30A8B42B3
:1039500001D3CB02C01A5241830A8B4201D38B029E
:10396000C01A5241430A8B4201D34B02C01A524142
:10397000030A8B4201D30B02C01A5241CDD2C309B4
:103980008B4201D3CB01C01A524183098B4201D330
:103990008B01C01A524143098B4201D34B01C01A1B
:1039A000524103098B4201D30B01C01A5241C30893
:1039B0008B4201D3CB00C01A524183088B4201D302
:1039C0008B00C01A524143088B4201D34B00C01AEE
:1039D0005241411A524110007047CA0F00D049426B
:1039E000031000D34042534000229C4603098B42FF
:1039F0002DD3030A8B4212D38901FC2212BA030A87
:103A00008B420CD3890192118B4208D38901921108
:103A10008B4204D3890137D0921100E08909C30990
:103A20008B4201D3CB01C01A524183098B4201D38F
:103A30008B01C01A524143098B4201D34B01C01A7A
:103A4000524103098B4201D30B01C01A5241C308F2
:103A50008B4201D3CB00C01A524183088B4201D361
:103A60008B00C01A5241D9D243088B4201D34B007C
:103A7000C01A5241411A00D20146524110466346D3
:103A80005B1000D34042704763465B1000D3404256
:103A900001B50021004201D0C9430846C046C046D6
:103AA00002BD10B500F066F8EFF300804000800F13
:103AB000012800D0002010BD10B500F085F8EFF30C
:103AC00000804000800F012801D0012010BD00209F
:103AD00010BD10B500F078F8EFF30080800001D43D
:103AE000012010BD002010BD70B50125ED070400B8
:103AF0004C4020D4441A01D2001B0919C60D4B00BA
:103B0000F2B2FF2A29D01B0E2CD000020C0228434F
:103B10002C43D31ADC40051910D2280A02D3401CCA
:103B20006D0611D0761EF6058019FF2A00DA70BDE9
:103B3000C00DC00570BD694000F076F80120054356
:103B4000C541521C761CE8E764089C40C9016140ED
:103B50008900E7D10124A043E4E71B0E440200D012
:103B6000034870BD002AFCD1C00FC00770BD00BF64
:103B70000000C07F0123DB0502000A430DD4DA42B6
:103B800003D49A4207D488427047D84214D4D94209
:103B900012D48842704780427047DA4203D59A4275
:103BA000F9D5814270475B004200DA4204D24A00F4
:103BB000DA4201D28142704710B5024AFCF786FE14
:103BC00010BD00BF090013040123DB0502000A43F6
:103BD0000DD4DA4203D49A4207D488427047D842BF
:103BE00014D4D94212D48842704780427047DA42D6
:103BF00003D59A42F9D5814270475B004200DA4210
:103C000004D24A00DA4201D28142704710B5024A1A
:103C1000FCF75CFE10BD00BF0900160470B501255D
:103C2000ED0704004C4022D4441A02D26C40001B21
:103C30000919C60D4B00F2B2FF2A4BD01B0E50D013
:103C400000020C02A8432C43D31ADC40051B05D507
:103C5000AD0019D36D08761E521E37D0F605280A1E
:103C600001D2801970BD70416D0603D070BD6940EE
:103C7000FFF740FF9C4009026140490001D0401E0F
:103C800070BD0124A04370BD6D081DD001202B0C18
:103C900001D12D0410302B0E01D12D0208302B0F35
:103CA00001D12D01001DAB0F01D1AD00801CEB0F28
:103CB00001D16D00401C361A121A6D00680AF50514
:103CC0004019012A02DB70BD002070BDC036300AE9
:103CD000C00770BD1B0E440201D1FF2B00D102486A
:103CE00070BD002AF0D070BD0000C07F0000000051
:103CF000000000000102030406070809000000009C
:103D00000102030402030405060708090A0B0C0D4F
:103D10000E0F10100102030405060708090A0B0C18
:103D20000D0E0F10483D000800000020100000009C
:103D3000F4000008583D0008100000202009000091
:103D40001001000800000000010000000400000055
:083D500000127A0000000000DF
:04000005080000B13E
:00000001FF
